{
  "contractName": "Butterfly",
  "abi": [
    {
      "payable": true,
      "stateMutability": "payable",
      "type": "fallback"
    },
    {
      "anonymous": false,
      "inputs": [
        {
          "indexed": false,
          "name": "_to",
          "type": "address"
        }
      ],
      "name": "PuzzledAssignedTo",
      "type": "event"
    },
    {
      "anonymous": false,
      "inputs": [
        {
          "indexed": false,
          "name": "_by",
          "type": "address"
        }
      ],
      "name": "PuzzledAcceptedBy",
      "type": "event"
    },
    {
      "constant": false,
      "inputs": [],
      "name": "unregisterUser",
      "outputs": [
        {
          "name": "",
          "type": "bool"
        }
      ],
      "payable": false,
      "stateMutability": "nonpayable",
      "type": "function"
    },
    {
      "constant": false,
      "inputs": [
        {
          "name": "_username",
          "type": "bytes32"
        }
      ],
      "name": "registerUser",
      "outputs": [
        {
          "name": "",
          "type": "bool"
        }
      ],
      "payable": false,
      "stateMutability": "nonpayable",
      "type": "function"
    },
    {
      "constant": true,
      "inputs": [],
      "name": "viewUserName",
      "outputs": [
        {
          "name": "",
          "type": "bytes32"
        }
      ],
      "payable": false,
      "stateMutability": "view",
      "type": "function"
    },
    {
      "constant": false,
      "inputs": [
        {
          "name": "_question",
          "type": "bytes32"
        },
        {
          "name": "_answer",
          "type": "string"
        },
        {
          "name": "_willPay",
          "type": "uint256"
        },
        {
          "name": "_willAccept",
          "type": "uint256"
        },
        {
          "name": "_to",
          "type": "address"
        }
      ],
      "name": "registerQuestion",
      "outputs": [
        {
          "name": "",
          "type": "bool"
        }
      ],
      "payable": false,
      "stateMutability": "nonpayable",
      "type": "function"
    },
    {
      "constant": false,
      "inputs": [
        {
          "name": "_willDeposit",
          "type": "uint256"
        }
      ],
      "name": "depositFunds",
      "outputs": [
        {
          "name": "",
          "type": "bool"
        }
      ],
      "payable": true,
      "stateMutability": "payable",
      "type": "function"
    },
    {
      "constant": false,
      "inputs": [
        {
          "name": "_willPay",
          "type": "uint256"
        }
      ],
      "name": "widrawFunds",
      "outputs": [
        {
          "name": "",
          "type": "bool"
        }
      ],
      "payable": true,
      "stateMutability": "payable",
      "type": "function"
    },
    {
      "constant": false,
      "inputs": [
        {
          "name": "_answer",
          "type": "string"
        },
        {
          "name": "_puzzleId",
          "type": "uint256"
        }
      ],
      "name": "checksAnswer",
      "outputs": [
        {
          "name": "",
          "type": "bool"
        }
      ],
      "payable": false,
      "stateMutability": "nonpayable",
      "type": "function"
    },
    {
      "constant": false,
      "inputs": [
        {
          "name": "_puzzleId",
          "type": "uint256"
        }
      ],
      "name": "claimPayback",
      "outputs": [],
      "payable": true,
      "stateMutability": "payable",
      "type": "function"
    },
    {
      "constant": false,
      "inputs": [
        {
          "name": "_puzzleId",
          "type": "uint256"
        }
      ],
      "name": "claimPaybackTimedOut",
      "outputs": [],
      "payable": true,
      "stateMutability": "payable",
      "type": "function"
    },
    {
      "constant": false,
      "inputs": [
        {
          "name": "_puzzleId",
          "type": "uint256"
        }
      ],
      "name": "acceptQuestion",
      "outputs": [
        {
          "name": "",
          "type": "bool"
        }
      ],
      "payable": false,
      "stateMutability": "nonpayable",
      "type": "function"
    },
    {
      "constant": true,
      "inputs": [],
      "name": "getUserQuestions",
      "outputs": [
        {
          "name": "",
          "type": "bytes32[]"
        },
        {
          "name": "",
          "type": "address[]"
        },
        {
          "name": "",
          "type": "uint256[]"
        },
        {
          "name": "",
          "type": "uint8[]"
        },
        {
          "name": "",
          "type": "uint256[]"
        },
        {
          "name": "",
          "type": "uint256[]"
        }
      ],
      "payable": false,
      "stateMutability": "view",
      "type": "function"
    },
    {
      "constant": true,
      "inputs": [],
      "name": "getListOfPlayers",
      "outputs": [
        {
          "name": "",
          "type": "address[]"
        }
      ],
      "payable": false,
      "stateMutability": "view",
      "type": "function"
    }
  ],
  "bytecode": "0x608060405234801561001057600080fd5b506115d4806100206000396000f3006080604052600436106100ba576000357c0100000000000000000000000000000000000000000000000000000000900463ffffffff1680630cba087d146100bc57806314726d88146100ef5780631bb71db21461015b5780632dc032591461018a57806337da03e3146101d35780633b76594d146103a75780634f2554de146103df5780637e484543146103ff5780639540756d1461041f578063a906ae7814610464578063d3a91d9814610527578063e573bd4e1461055f575b005b3480156100c857600080fd5b506100d16105ea565b60405180826000191660001916815260200191505060405180910390f35b3480156100fb57600080fd5b50610104610688565b6040518080602001828103825283818151815260200191508051906020019060200280838360005b8381101561014757808201518184015260208101905061012c565b505050509050019250505060405180910390f35b34801561016757600080fd5b50610170610716565b604051808215151515815260200191505060405180910390f35b34801561019657600080fd5b506101b96004803603810190808035600019169060200190929190505050610775565b604051808215151515815260200191505060405180910390f35b3480156101df57600080fd5b506101e8610885565b6040518080602001806020018060200180602001806020018060200187810387528d818151815260200191508051906020019060200280838360005b8381101561023f578082015181840152602081019050610224565b5050505090500187810386528c818151815260200191508051906020019060200280838360005b83811015610281578082015181840152602081019050610266565b5050505090500187810385528b818151815260200191508051906020019060200280838360005b838110156102c35780820151818401526020810190506102a8565b5050505090500187810384528a818151815260200191508051906020019060200280838360005b838110156103055780820151818401526020810190506102ea565b50505050905001878103835289818151815260200191508051906020019060200280838360005b8381101561034757808201518184015260208101905061032c565b50505050905001878103825288818151815260200191508051906020019060200280838360005b8381101561038957808201518184015260208101905061036e565b505050509050019c5050505050505050505050505060405180910390f35b6103c560048036038101908080359060200190929190505050610c0e565b604051808215151515815260200191505060405180910390f35b6103fd60048036038101908080359060200190929190505050610c4c565b005b61041d60048036038101908080359060200190929190505050610d45565b005b34801561042b57600080fd5b5061044a60048036038101908080359060200190929190505050610e1a565b604051808215151515815260200191505060405180910390f35b34801561047057600080fd5b5061050d6004803603810190808035600019169060200190929190803590602001908201803590602001908080601f01602080910402602001604051908101604052809392919081815260200183838082843782019150505050505091929192908035906020019092919080359060200190929190803573ffffffffffffffffffffffffffffffffffffffff169060200190929190505050610f6a565b604051808215151515815260200191505060405180910390f35b61054560048036038101908080359060200190929190505050611203565b604051808215151515815260200191505060405180910390f35b34801561056b57600080fd5b506105d0600480360381019080803590602001908201803590602001908080601f0160208091040260200160405190810160405280939291908181526020018383808284378201915050505050509192919290803590602001909291905050506112ac565b604051808215151515815260200191505060405180910390f35b60008060003373ffffffffffffffffffffffffffffffffffffffff1673ffffffffffffffffffffffffffffffffffffffff16815260200190815260200160002060009054906101000a900460ff16151561064357600080fd5b600160003373ffffffffffffffffffffffffffffffffffffffff1673ffffffffffffffffffffffffffffffffffffffff16815260200190815260200160002054905090565b6060600380548060200260200160405190810160405280929190818152602001828054801561070c57602002820191906000526020600020905b8160009054906101000a900473ffffffffffffffffffffffffffffffffffffffff1673ffffffffffffffffffffffffffffffffffffffff16815260200190600101908083116106c2575b5050505050905090565b6000806000803373ffffffffffffffffffffffffffffffffffffffff1673ffffffffffffffffffffffffffffffffffffffff16815260200190815260200160002060006101000a81548160ff0219169083151502179055506001905090565b600081600160003373ffffffffffffffffffffffffffffffffffffffff1673ffffffffffffffffffffffffffffffffffffffff168152602001908152602001600020816000191690555060016000803373ffffffffffffffffffffffffffffffffffffffff1673ffffffffffffffffffffffffffffffffffffffff16815260200190815260200160002060006101000a81548160ff02191690831515021790555060033390806001815401808255809150509060018203906000526020600020016000909192909190916101000a81548173ffffffffffffffffffffffffffffffffffffffff021916908373ffffffffffffffffffffffffffffffffffffffff1602179055505060019050919050565b60608060608060608060608060608060608060006002805490506040519080825280602002602001820160405280156108cd5781602001602082028038833980820191505090505b5096506002805490506040519080825280602002602001820160405280156109045781602001602082028038833980820191505090505b50955060028054905060405190808252806020026020018201604052801561093b5781602001602082028038833980820191505090505b5094506002805490506040519080825280602002602001820160405280156109725781602001602082028038833980820191505090505b5093506002805490506040519080825280602002602001820160405280156109a95781602001602082028038833980820191505090505b5092506002805490506040519080825280602002602001820160405280156109e05781602001602082028038833980820191505090505b509150600090505b600280549050811015610bed57600281815481101515610a0457fe5b9060005260206000209060080201600001548782815181101515610a2457fe5b906020019060200201906000191690816000191681525050600281815481101515610a4b57fe5b906000526020600020906008020160040160009054906101000a900473ffffffffffffffffffffffffffffffffffffffff168682815181101515610a8b57fe5b9060200190602002019073ffffffffffffffffffffffffffffffffffffffff16908173ffffffffffffffffffffffffffffffffffffffff1681525050600281815481101515610ad657fe5b9060005260206000209060080201600501548582815181101515610af657fe5b9060200190602002018181525050600281815481101515610b1357fe5b906000526020600020906008020160030160009054906101000a900460ff168482815181101515610b4057fe5b906020019060200201906005811115610b5557fe5b90816005811115610b6257fe5b81525050600281815481101515610b7557fe5b9060005260206000209060080201600601548382815181101515610b9557fe5b9060200190602002018181525050600281815481101515610bb257fe5b9060005260206000209060080201600701548282815181101515610bd257fe5b906020019060200201818152505080806001019150506109e8565b8686868686869c509c509c509c509c509c5050505050505050909192939495565b60003073ffffffffffffffffffffffffffffffffffffffff166108fc839081150290604051600060405180830381858888f193505050509050919050565b3373ffffffffffffffffffffffffffffffffffffffff16600282815481101515610c7257fe5b906000526020600020906008020160030160019054906101000a900473ffffffffffffffffffffffffffffffffffffffff1673ffffffffffffffffffffffffffffffffffffffff16141515610cc657600080fd5b60026005811115610cd357fe5b600282815481101515610ce257fe5b906000526020600020906008020160030160009054906101000a900460ff166005811115610d0c57fe5b141515610d1857600080fd5b610d41600282815481101515610d2a57fe5b906000526020600020906008020160070154611203565b5050565b3373ffffffffffffffffffffffffffffffffffffffff16600282815481101515610d6b57fe5b906000526020600020906008020160030160019054906101000a900473ffffffffffffffffffffffffffffffffffffffff1673ffffffffffffffffffffffffffffffffffffffff16141515610dbf57600080fd5b42600282815481101515610dcf57fe5b906000526020600020906008020160050154101515610ded57600080fd5b610e16600282815481101515610dff57fe5b906000526020600020906008020160070154611203565b5050565b60003373ffffffffffffffffffffffffffffffffffffffff16600283815481101515610e4257fe5b906000526020600020906008020160040160009054906101000a900473ffffffffffffffffffffffffffffffffffffffff1673ffffffffffffffffffffffffffffffffffffffff16141515610e9657600080fd5b6003600283815481101515610ea757fe5b906000526020600020906008020160030160006101000a81548160ff02191690836005811115610ed357fe5b0217905550620151804201600283815481101515610eed57fe5b9060005260206000209060080201600501819055507f463d48e50b163bdd2baccd8bea972b89c5515f978da0de0e08ff4b1a9b03bda633604051808273ffffffffffffffffffffffffffffffffffffffff1673ffffffffffffffffffffffffffffffffffffffff16815260200191505060405180910390a1919050565b6000806000803373ffffffffffffffffffffffffffffffffffffffff1673ffffffffffffffffffffffffffffffffffffffff16815260200190815260200160002060009054906101000a900460ff161515610fc457600080fd5b856040518082805190602001908083835b602083101515610ffa5780518252602082019150602081019050602083039250610fd5565b6001836020036101000a0380198251168184511680821785525050505050509050019150506040518091039020905060026101206040519081016040528089600019168152602001888152602001836000191681526020016001600581111561105f57fe5b81526020013373ffffffffffffffffffffffffffffffffffffffff1681526020018573ffffffffffffffffffffffffffffffffffffffff168152602001600081526020018781526020018681525090806001815401808255809150509060018203906000526020600020906008020160009091929091909150600082015181600001906000191690556020820151816001019080519060200190611104929190611503565b506040820151816002019060001916905560608201518160030160006101000a81548160ff0219169083600581111561113957fe5b021790555060808201518160030160016101000a81548173ffffffffffffffffffffffffffffffffffffffff021916908373ffffffffffffffffffffffffffffffffffffffff16021790555060a08201518160040160006101000a81548173ffffffffffffffffffffffffffffffffffffffff021916908373ffffffffffffffffffffffffffffffffffffffff16021790555060c0820151816005015560e0820151816006015561010082015181600701555050506111f785610c0e565b91505095945050505050565b60008060003373ffffffffffffffffffffffffffffffffffffffff1673ffffffffffffffffffffffffffffffffffffffff16815260200190815260200160002060009054906101000a900460ff16151561125c57600080fd5b3373ffffffffffffffffffffffffffffffffffffffff166108fc839081150290604051600060405180830381858888f193505050501580156112a2573d6000803e3d6000fd5b5060019050919050565b6000806000803373ffffffffffffffffffffffffffffffffffffffff1673ffffffffffffffffffffffffffffffffffffffff16815260200190815260200160002060009054906101000a900460ff16151561130657600080fd5b60028381548110151561131557fe5b9060005260206000209060080201600501544210151561133457600080fd5b60028381548110151561134357fe5b90600052602060002090600802016002015460001916846040518082805190602001908083835b60208310151561138f578051825260208201915060208101905060208303925061136a565b6001836020036101000a03801982511681845116808217855250505050505090500191505060405180910390206000191614156114b557600280848154811015156113d657fe5b906000526020600020906008020160030160006101000a81548160ff0219169083600581111561140257fe5b0217905550600060028481548110151561141857fe5b9060005260206000209060080201600501819055506002600581111561143a57fe5b60028481548110151561144957fe5b906000526020600020906008020160030160009054906101000a900460ff16600581111561147357fe5b14151561147f57600080fd5b60028381548110151561148e57fe5b90600052602060002090600802016006015490506114ab81611203565b50600191506114fc565b60046002848154811015156114c657fe5b906000526020600020906008020160030160006101000a81548160ff021916908360058111156114f257fe5b0217905550600091505b5092915050565b828054600181600116156101000203166002900490600052602060002090601f016020900481019282601f1061154457805160ff1916838001178555611572565b82800160010185558215611572579182015b82811115611571578251825591602001919060010190611556565b5b50905061157f9190611583565b5090565b6115a591905b808211156115a1576000816000905550600101611589565b5090565b905600a165627a7a7230582065d2634cec39bc1c9b7a4cf9e717f4317cdf8b7a7876f6a7a054d1c2342f8b2e0029",
  "source": "pragma solidity ^0.4.2;\n\nimport \"./strings.sol\";\n\ncontract Butterfly {\n\n    using strings for *;\n\n    enum Status { Created, Assigned, Solved, Accepted, Rejected, TimedOut }\n\n    event PuzzledAssignedTo(address _to);\n    event PuzzledAcceptedBy(address _by);\n    \n\n    struct Puzzle {\n        bytes32 question;\n        string answer;\n        bytes32 hashedAnswer;\n        Status status;\n        address creator;\n        address assignedTo;\n        uint ttl;\n        uint willPay;\n        uint willAccept;\n    }\n\n    mapping(address => bool) registered;\n\n    mapping(address => bytes32) players;\n\n    Puzzle[] availablePuzzles;\n    address[] availablePlayers;\n\n    uint puzzleCount;\n\n    function unregisterUser() public returns(bool){\n        registered[msg.sender] = false;\n        return true;\n    }\n\n    function registerUser(bytes32 _username) public returns(bool){\n        players[msg.sender] = _username;\n        registered[msg.sender] = true;\n        availablePlayers.push(msg.sender);\n        return true;\n    }\n\n    function viewUserName() public view returns (bytes32){\n        require(registered[msg.sender]);\n        return players[msg.sender];\n    }\n\n    function registerQuestion(bytes32 _question, string _answer, uint _willPay, uint _willAccept, address _to) public returns(bool){\n        require(registered[msg.sender]);\n        bytes32 hashedAnswer = keccak256(bytes(_answer));\n        availablePuzzles.push(Puzzle(_question, _answer, hashedAnswer, Status.Assigned, msg.sender, _to, 0, _willPay, _willAccept));\n        return depositFunds(_willPay);\n    }\n\n    function depositFunds(uint _willDeposit) payable public returns(bool){\n        return address(this).send(_willDeposit);\n    }\n\n    function widrawFunds(uint _willPay) payable public returns(bool){\n        require(registered[msg.sender]);\n        msg.sender.transfer(_willPay);\n        return true;\n    }\n\n    function() payable public{}\n\n    function assignQuestion(address _to, uint _puzzleId) private returns(bool){\n        require(availablePuzzles[_puzzleId].creator == msg.sender);\n        availablePuzzles[_puzzleId].assignedTo = _to;\n        availablePuzzles[_puzzleId].assignedTo = _to;\n        emit PuzzledAssignedTo(_to);\n    }\n\n    function checksAnswer(string _answer, uint _puzzleId) public returns(bool){\n        require(registered[msg.sender]);\n        require(now < availablePuzzles[_puzzleId].ttl);\n        if (keccak256(bytes(_answer)) == availablePuzzles[_puzzleId].hashedAnswer){\n            availablePuzzles[_puzzleId].status = Status.Solved;\n            availablePuzzles[_puzzleId].ttl = 0;\n            require(availablePuzzles[_puzzleId].status == Status.Solved);\n            uint toPay = availablePuzzles[_puzzleId].willPay;\n            widrawFunds(toPay);\n            return true;\n        } else {\n            availablePuzzles[_puzzleId].status = Status.Rejected;\n            return false;\n        }   \n    }\n\n    function claimPayback(uint _puzzleId) payable public {\n        require(availablePuzzles[_puzzleId].creator == msg.sender);\n        require(availablePuzzles[_puzzleId].status == Status.Solved);\n        widrawFunds(availablePuzzles[_puzzleId].willAccept);\n    }\n\n    function claimPaybackTimedOut(uint _puzzleId) payable public {\n        require(availablePuzzles[_puzzleId].creator == msg.sender);\n        require(availablePuzzles[_puzzleId].ttl < now);\n        widrawFunds(availablePuzzles[_puzzleId].willAccept);\n    }\n\n    function acceptQuestion(uint _puzzleId) public returns(bool){\n        require(availablePuzzles[_puzzleId].assignedTo == msg.sender);\n        availablePuzzles[_puzzleId].status = Status.Accepted;\n        availablePuzzles[_puzzleId].ttl = now + 1 days;\n        emit PuzzledAcceptedBy(msg.sender);\n    }\n\n    function getUserQuestions() public view returns(bytes32[], address[], uint[], Status[], uint[], uint[]){\n        \n        bytes32[]  memory questions = new bytes32[](availablePuzzles.length);\n        address[] memory assignedTos = new address[](availablePuzzles.length);\n        uint[]    memory ttls = new uint[](availablePuzzles.length);\n        Status[]  memory statuses = new Status[](availablePuzzles.length);\n        uint[]    memory willPays = new uint[](availablePuzzles.length);\n        uint[]    memory willAccepts = new uint[](availablePuzzles.length);\n\n\n        for (uint i = 0; i < availablePuzzles.length; i++){\n            //if (availablePuzzles[i].creator == msg.sender || availablePuzzles[i].assignedTo == msg.sender){\n\n            questions[i] = availablePuzzles[i].question;\n            assignedTos[i] = availablePuzzles[i].assignedTo;\n            ttls[i] = availablePuzzles[i].ttl;\n            statuses[i] = availablePuzzles[i].status;\n            willPays[i] = availablePuzzles[i].willPay;\n            willAccepts[i] = availablePuzzles[i].willAccept;\n                  \n            //}\n                   \n        }\n\n        return (questions, assignedTos, ttls, statuses, willPays, willAccepts);\n    }\n\n    function bytesToBytes32(bytes b, uint offset) private pure returns (bytes32) {\n        bytes32 out;\n\n        for (uint i = 0; i < 32; i++) {\n            out |= bytes32(b[offset + i] & 0xFF) >> (i * 8);\n        }\n        return out;\n    }       \n\n    function getListOfPlayers() public view returns (address[]){\n        return availablePlayers;\n    }\n}",
  "sourcePath": "/Users/alex/week4/butterfly/contracts/Butterfly.sol",
  "compiler": {
    "name": "solc",
    "version": "0.4.23+commit.124ca40d.Emscripten.clang"
  },
  "schemaVersion": "2.0.0",
  "updatedAt": "2018-05-27T03:09:59.669Z"
}